{
  "contractName": "Wallet",
  "abi": [
    {
      "anonymous": false,
      "inputs": [
        {
          "indexed": true,
          "internalType": "address",
          "name": "previousOwner",
          "type": "address"
        },
        {
          "indexed": true,
          "internalType": "address",
          "name": "newOwner",
          "type": "address"
        }
      ],
      "name": "OwnershipTransferred",
      "type": "event"
    },
    {
      "inputs": [
        {
          "internalType": "address",
          "name": "",
          "type": "address"
        },
        {
          "internalType": "bytes32",
          "name": "",
          "type": "bytes32"
        }
      ],
      "name": "balances",
      "outputs": [
        {
          "internalType": "uint256",
          "name": "",
          "type": "uint256"
        }
      ],
      "stateMutability": "view",
      "type": "function",
      "constant": true
    },
    {
      "inputs": [],
      "name": "owner",
      "outputs": [
        {
          "internalType": "address",
          "name": "",
          "type": "address"
        }
      ],
      "stateMutability": "view",
      "type": "function",
      "constant": true
    },
    {
      "inputs": [],
      "name": "renounceOwnership",
      "outputs": [],
      "stateMutability": "nonpayable",
      "type": "function"
    },
    {
      "inputs": [
        {
          "internalType": "uint256",
          "name": "",
          "type": "uint256"
        }
      ],
      "name": "tokenList",
      "outputs": [
        {
          "internalType": "bytes32",
          "name": "",
          "type": "bytes32"
        }
      ],
      "stateMutability": "view",
      "type": "function",
      "constant": true
    },
    {
      "inputs": [
        {
          "internalType": "bytes32",
          "name": "",
          "type": "bytes32"
        }
      ],
      "name": "tokenMapping",
      "outputs": [
        {
          "internalType": "bytes32",
          "name": "tiker",
          "type": "bytes32"
        },
        {
          "internalType": "address",
          "name": "tokenAddress",
          "type": "address"
        }
      ],
      "stateMutability": "view",
      "type": "function",
      "constant": true
    },
    {
      "inputs": [
        {
          "internalType": "address",
          "name": "newOwner",
          "type": "address"
        }
      ],
      "name": "transferOwnership",
      "outputs": [],
      "stateMutability": "nonpayable",
      "type": "function"
    },
    {
      "inputs": [
        {
          "internalType": "bytes32",
          "name": "ticker",
          "type": "bytes32"
        },
        {
          "internalType": "address",
          "name": "tokenAddress",
          "type": "address"
        }
      ],
      "name": "addToken",
      "outputs": [],
      "stateMutability": "nonpayable",
      "type": "function"
    },
    {
      "inputs": [
        {
          "internalType": "uint256",
          "name": "amount",
          "type": "uint256"
        },
        {
          "internalType": "bytes32",
          "name": "ticker",
          "type": "bytes32"
        }
      ],
      "name": "deposit",
      "outputs": [],
      "stateMutability": "nonpayable",
      "type": "function"
    },
    {
      "inputs": [
        {
          "internalType": "uint256",
          "name": "amount",
          "type": "uint256"
        },
        {
          "internalType": "bytes32",
          "name": "ticker",
          "type": "bytes32"
        }
      ],
      "name": "withdraw",
      "outputs": [],
      "stateMutability": "nonpayable",
      "type": "function"
    }
  ],
  "bytecode": "0x608060405234801561001057600080fd5b5061002d61002261003260201b60201c565b61003a60201b60201c565b6100fe565b600033905090565b60008060009054906101000a900473ffffffffffffffffffffffffffffffffffffffff169050816000806101000a81548173ffffffffffffffffffffffffffffffffffffffff021916908373ffffffffffffffffffffffffffffffffffffffff1602179055508173ffffffffffffffffffffffffffffffffffffffff168173ffffffffffffffffffffffffffffffffffffffff167f8be0079c531659141344cd1fd0a4f28419497f9722a3daafe3b4186f6b6457e060405160405180910390a35050565b6111148061010d6000396000f3fe608060405234801561001057600080fd5b50600436106100935760003560e01c80639776aacf116100665780639776aacf146101215780639ead72221461013d578063a8d2021a1461016d578063c9630cb014610189578063f2fde38b146101a557610093565b80631f14df6914610098578063667cb4ba146100c8578063715018a6146100f95780638da5cb5b14610103575b600080fd5b6100b260048036038101906100ad9190610b8a565b6101c1565b6040516100bf9190610f4b565b60405180910390f35b6100e260048036038101906100dd9190610bef565b6101e6565b6040516100f0929190610ea2565b60405180910390f35b61010161022a565b005b61010b6102b2565b6040516101189190610e0c565b60405180910390f35b61013b60048036038101906101369190610c18565b6102db565b005b61015760048036038101906101529190610c54565b610416565b6040516101649190610e87565b60405180910390f35b61018760048036038101906101829190610c7d565b61043a565b005b6101a3600480360381019061019e9190610c7d565b6106f4565b005b6101bf60048036038101906101ba9190610b61565b61091d565b005b6003602052816000526040600020602052806000526040600020600091509150505481565b60016020528060005260406000206000915090508060000154908060010160009054906101000a900473ffffffffffffffffffffffffffffffffffffffff16905082565b610232610a15565b73ffffffffffffffffffffffffffffffffffffffff166102506102b2565b73ffffffffffffffffffffffffffffffffffffffff16146102a6576040517f08c379a000000000000000000000000000000000000000000000000000000000815260040161029d90610f2b565b60405180910390fd5b6102b06000610a1d565b565b60008060009054906101000a900473ffffffffffffffffffffffffffffffffffffffff16905090565b6102e3610a15565b73ffffffffffffffffffffffffffffffffffffffff166103016102b2565b73ffffffffffffffffffffffffffffffffffffffff1614610357576040517f08c379a000000000000000000000000000000000000000000000000000000000815260040161034e90610f2b565b60405180910390fd5b60405180604001604052808381526020018273ffffffffffffffffffffffffffffffffffffffff16815250600160008481526020019081526020016000206000820151816000015560208201518160010160006101000a81548173ffffffffffffffffffffffffffffffffffffffff021916908373ffffffffffffffffffffffffffffffffffffffff16021790555090505060028290806001815401808255809150506001900390600052602060002001600090919091909150555050565b6002818154811061042657600080fd5b906000526020600020016000915090505481565b80600073ffffffffffffffffffffffffffffffffffffffff166001600083815260200190815260200160002060010160009054906101000a900473ffffffffffffffffffffffffffffffffffffffff1673ffffffffffffffffffffffffffffffffffffffff1614156104e1576040517f08c379a00000000000000000000000000000000000000000000000000000000081526004016104d890610f0b565b60405180910390fd5b82600360003373ffffffffffffffffffffffffffffffffffffffff1673ffffffffffffffffffffffffffffffffffffffff1681526020019081526020016000206000848152602001908152602001600020541015610574576040517f08c379a000000000000000000000000000000000000000000000000000000000815260040161056b90610ecb565b60405180910390fd5b6105d783600360003373ffffffffffffffffffffffffffffffffffffffff1673ffffffffffffffffffffffffffffffffffffffff168152602001908152602001600020600085815260200190815260200160002054610ae190919063ffffffff16565b600360003373ffffffffffffffffffffffffffffffffffffffff1673ffffffffffffffffffffffffffffffffffffffff1681526020019081526020016000206000848152602001908152602001600020819055506001600083815260200190815260200160002060010160009054906101000a900473ffffffffffffffffffffffffffffffffffffffff1673ffffffffffffffffffffffffffffffffffffffff1663a9059cbb33856040518363ffffffff1660e01b815260040161069c929190610e5e565b602060405180830381600087803b1580156106b657600080fd5b505af11580156106ca573d6000803e3d6000fd5b505050506040513d601f19601f820116820180604052508101906106ee9190610bc6565b50505050565b80600073ffffffffffffffffffffffffffffffffffffffff166001600083815260200190815260200160002060010160009054906101000a900473ffffffffffffffffffffffffffffffffffffffff1673ffffffffffffffffffffffffffffffffffffffff16141561079b576040517f08c379a000000000000000000000000000000000000000000000000000000000815260040161079290610f0b565b60405180910390fd5b6001600083815260200190815260200160002060010160009054906101000a900473ffffffffffffffffffffffffffffffffffffffff1673ffffffffffffffffffffffffffffffffffffffff166323b872dd3330866040518463ffffffff1660e01b815260040161080e93929190610e27565b602060405180830381600087803b15801561082857600080fd5b505af115801561083c573d6000803e3d6000fd5b505050506040513d601f19601f820116820180604052508101906108609190610bc6565b506108c483600360003373ffffffffffffffffffffffffffffffffffffffff1673ffffffffffffffffffffffffffffffffffffffff168152602001908152602001600020600085815260200190815260200160002054610af790919063ffffffff16565b600360003373ffffffffffffffffffffffffffffffffffffffff1673ffffffffffffffffffffffffffffffffffffffff168152602001908152602001600020600084815260200190815260200160002081905550505050565b610925610a15565b73ffffffffffffffffffffffffffffffffffffffff166109436102b2565b73ffffffffffffffffffffffffffffffffffffffff1614610999576040517f08c379a000000000000000000000000000000000000000000000000000000000815260040161099090610f2b565b60405180910390fd5b600073ffffffffffffffffffffffffffffffffffffffff168173ffffffffffffffffffffffffffffffffffffffff161415610a09576040517f08c379a0000000000000000000000000000000000000000000000000000000008152600401610a0090610eeb565b60405180910390fd5b610a1281610a1d565b50565b600033905090565b60008060009054906101000a900473ffffffffffffffffffffffffffffffffffffffff169050816000806101000a81548173ffffffffffffffffffffffffffffffffffffffff021916908373ffffffffffffffffffffffffffffffffffffffff1602179055508173ffffffffffffffffffffffffffffffffffffffff168173ffffffffffffffffffffffffffffffffffffffff167f8be0079c531659141344cd1fd0a4f28419497f9722a3daafe3b4186f6b6457e060405160405180910390a35050565b60008183610aef9190610fcd565b905092915050565b60008183610b059190610f77565b905092915050565b600081359050610b1c81611082565b92915050565b600081519050610b3181611099565b92915050565b600081359050610b46816110b0565b92915050565b600081359050610b5b816110c7565b92915050565b600060208284031215610b7357600080fd5b6000610b8184828501610b0d565b91505092915050565b60008060408385031215610b9d57600080fd5b6000610bab85828601610b0d565b9250506020610bbc85828601610b37565b9150509250929050565b600060208284031215610bd857600080fd5b6000610be684828501610b22565b91505092915050565b600060208284031215610c0157600080fd5b6000610c0f84828501610b37565b91505092915050565b60008060408385031215610c2b57600080fd5b6000610c3985828601610b37565b9250506020610c4a85828601610b0d565b9150509250929050565b600060208284031215610c6657600080fd5b6000610c7484828501610b4c565b91505092915050565b60008060408385031215610c9057600080fd5b6000610c9e85828601610b4c565b9250506020610caf85828601610b37565b9150509250929050565b610cc281611001565b82525050565b610cd18161101f565b82525050565b6000610ce4601683610f66565b91507f62616c616e6365206e6f742073756666696369656e74000000000000000000006000830152602082019050919050565b6000610d24602683610f66565b91507f4f776e61626c653a206e6577206f776e657220697320746865207a65726f206160008301527f64647265737300000000000000000000000000000000000000000000000000006020830152604082019050919050565b6000610d8a601483610f66565b91507f546f6b656e20646f6573206e6f742065786973740000000000000000000000006000830152602082019050919050565b6000610dca602083610f66565b91507f4f776e61626c653a2063616c6c6572206973206e6f7420746865206f776e65726000830152602082019050919050565b610e0681611049565b82525050565b6000602082019050610e216000830184610cb9565b92915050565b6000606082019050610e3c6000830186610cb9565b610e496020830185610cb9565b610e566040830184610dfd565b949350505050565b6000604082019050610e736000830185610cb9565b610e806020830184610dfd565b9392505050565b6000602082019050610e9c6000830184610cc8565b92915050565b6000604082019050610eb76000830185610cc8565b610ec46020830184610cb9565b9392505050565b60006020820190508181036000830152610ee481610cd7565b9050919050565b60006020820190508181036000830152610f0481610d17565b9050919050565b60006020820190508181036000830152610f2481610d7d565b9050919050565b60006020820190508181036000830152610f4481610dbd565b9050919050565b6000602082019050610f606000830184610dfd565b92915050565b600082825260208201905092915050565b6000610f8282611049565b9150610f8d83611049565b9250827fffffffffffffffffffffffffffffffffffffffffffffffffffffffffffffffff03821115610fc257610fc1611053565b5b828201905092915050565b6000610fd882611049565b9150610fe383611049565b925082821015610ff657610ff5611053565b5b828203905092915050565b600061100c82611029565b9050919050565b60008115159050919050565b6000819050919050565b600073ffffffffffffffffffffffffffffffffffffffff82169050919050565b6000819050919050565b7f4e487b7100000000000000000000000000000000000000000000000000000000600052601160045260246000fd5b61108b81611001565b811461109657600080fd5b50565b6110a281611013565b81146110ad57600080fd5b50565b6110b98161101f565b81146110c457600080fd5b50565b6110d081611049565b81146110db57600080fd5b5056fea26469706673582212201d2be7f8f187bbc3a671d98c44b894d4646f9b82d856696e3a05488a3823f16364736f6c63430008000033",
  "immutableReferences": {},
  "source": "// SPDX-License-Identifier: MIT\npragma solidity >=0.6.0 <= 0.8.0;\n\nimport \"../node_modules/@openzeppelin/contracts/token/ERC20/IERC20.sol\";\nimport \"../node_modules/@openzeppelin/contracts/utils/math/SafeMath.sol\";\nimport \"../node_modules/@openzeppelin/contracts/access/Ownable.sol\";\n\ncontract Wallet is Ownable{\n    using SafeMath for uint256;\n    \n    struct Token {\n        bytes32 tiker;\n        address tokenAddress;\n    }\n\n    mapping(bytes32 => Token) public tokenMapping;\n    bytes32[] public tokenList;\n\n    mapping(address => mapping(bytes32 => uint256)) public balances;\n\n    modifier tokenExist( bytes32 ticker) {\n       require(tokenMapping[ticker].tokenAddress != address(0), \"Token does not exist\");\n       _;\n    }\n\n    function addToken(bytes32 ticker, address tokenAddress) onlyOwner external {\n        tokenMapping[ticker] = Token(ticker, tokenAddress);\n        tokenList.push(ticker);\n    }\n\n    function deposit(uint amount, bytes32 ticker) tokenExist(ticker) external {   \n        IERC20(tokenMapping[ticker].tokenAddress).transferFrom(msg.sender, address(this), amount);\n        balances[msg.sender][ticker]= balances[msg.sender][ticker].add(amount);\n    }\n\n    function withdraw(uint amount, bytes32 ticker) tokenExist(ticker) external {\n\n        require(balances[msg.sender][ticker] >= amount, \"balance not sufficient\");\n        balances[msg.sender][ticker]= balances[msg.sender][ticker].sub(amount);\n        IERC20(tokenMapping[ticker].tokenAddress).transfer(msg.sender, amount);\n    }\n\n}\n",
  "sourcePath": "/home/scott/projects/moralis/dex201/contracts/wallet.sol",
  "compiler": {
    "name": "solc",
    "version": "0.8.0+commit.c7dfd78e.Emscripten.clang"
  },
  "schemaVersion": "3.4.6",
  "updatedAt": "2022-04-05T12:48:51.643Z",
  "networkType": "ethereum",
  "devdoc": {
    "kind": "dev",
    "methods": {
      "owner()": {
        "details": "Returns the address of the current owner."
      },
      "renounceOwnership()": {
        "details": "Leaves the contract without owner. It will not be possible to call `onlyOwner` functions anymore. Can only be called by the current owner. NOTE: Renouncing ownership will leave the contract without an owner, thereby removing any functionality that is only available to the owner."
      },
      "transferOwnership(address)": {
        "details": "Transfers ownership of the contract to a new account (`newOwner`). Can only be called by the current owner."
      }
    },
    "version": 1
  },
  "userdoc": {
    "kind": "user",
    "methods": {},
    "version": 1
  }
}